{
  "contractName": "StudentDetails",
  "abi": [
    {
      "inputs": [
        {
          "internalType": "uint256",
          "name": "",
          "type": "uint256"
        }
      ],
      "name": "students",
      "outputs": [
        {
          "internalType": "string",
          "name": "name",
          "type": "string"
        },
        {
          "internalType": "uint256",
          "name": "age",
          "type": "uint256"
        },
        {
          "internalType": "string",
          "name": "course",
          "type": "string"
        }
      ],
      "stateMutability": "view",
      "type": "function",
      "constant": true
    },
    {
      "inputs": [
        {
          "internalType": "uint256",
          "name": "_id",
          "type": "uint256"
        },
        {
          "internalType": "string",
          "name": "_name",
          "type": "string"
        },
        {
          "internalType": "uint256",
          "name": "_age",
          "type": "uint256"
        },
        {
          "internalType": "string",
          "name": "_course",
          "type": "string"
        }
      ],
      "name": "setStudent",
      "outputs": [],
      "stateMutability": "nonpayable",
      "type": "function"
    },
    {
      "inputs": [
        {
          "internalType": "uint256",
          "name": "_id",
          "type": "uint256"
        }
      ],
      "name": "getStudent",
      "outputs": [
        {
          "internalType": "string",
          "name": "",
          "type": "string"
        },
        {
          "internalType": "uint256",
          "name": "",
          "type": "uint256"
        },
        {
          "internalType": "string",
          "name": "",
          "type": "string"
        }
      ],
      "stateMutability": "view",
      "type": "function",
      "constant": true
    },
    {
      "inputs": [
        {
          "internalType": "uint256",
          "name": "_id",
          "type": "uint256"
        },
        {
          "internalType": "string",
          "name": "_name",
          "type": "string"
        },
        {
          "internalType": "uint256",
          "name": "_age",
          "type": "uint256"
        },
        {
          "internalType": "string",
          "name": "_course",
          "type": "string"
        }
      ],
      "name": "updateStudent",
      "outputs": [],
      "stateMutability": "nonpayable",
      "type": "function"
    }
  ],
  "bytecode": "0x608060405234801561001057600080fd5b50610b84806100206000396000f3fe608060405234801561001057600080fd5b506004361061004c5760003560e01c806306ead22e14610051578063642f9163146100835780636811f85b146100b5578063c11e15e4146100d1575b600080fd5b61006b6004803603810190610066919061051f565b6100ed565b60405161007a939291906105eb565b60405180910390f35b61009d6004803603810190610098919061051f565b610227565b6040516100ac939291906105eb565b60405180910390f35b6100cf60048036038101906100ca9190610765565b610399565b005b6100eb60048036038101906100e69190610765565b610405565b005b600060205280600052604060002060009150905080600001805461011090610833565b80601f016020809104026020016040519081016040528092919081815260200182805461013c90610833565b80156101895780601f1061015e57610100808354040283529160200191610189565b820191906000526020600020905b81548152906001019060200180831161016c57829003601f168201915b5050505050908060010154908060020180546101a490610833565b80601f01602080910402602001604051908101604052809291908181526020018280546101d090610833565b801561021d5780601f106101f25761010080835404028352916020019161021d565b820191906000526020600020905b81548152906001019060200180831161020057829003601f168201915b5050505050905083565b606060006060600080600086815260200190815260200160002060405180606001604052908160008201805461025c90610833565b80601f016020809104026020016040519081016040528092919081815260200182805461028890610833565b80156102d55780601f106102aa576101008083540402835291602001916102d5565b820191906000526020600020905b8154815290600101906020018083116102b857829003601f168201915b50505050508152602001600182015481526020016002820180546102f890610833565b80601f016020809104026020016040519081016040528092919081815260200182805461032490610833565b80156103715780601f1061034657610100808354040283529160200191610371565b820191906000526020600020905b81548152906001019060200180831161035457829003601f168201915b5050505050815250509050806000015181602001518260400151935093509350509193909250565b60405180606001604052808481526020018381526020018281525060008086815260200190815260200160002060008201518160000190816103db9190610a10565b506020820151816001015560408201518160020190816103fb9190610a10565b5090505050505050565b6000806000868152602001908152602001600020600001805461042790610833565b905003610469576040517f08c379a000000000000000000000000000000000000000000000000000000000815260040161046090610b2e565b60405180910390fd5b60405180606001604052808481526020018381526020018281525060008086815260200190815260200160002060008201518160000190816104ab9190610a10565b506020820151816001015560408201518160020190816104cb9190610a10565b5090505050505050565b6000604051905090565b600080fd5b600080fd5b6000819050919050565b6104fc816104e9565b811461050757600080fd5b50565b600081359050610519816104f3565b92915050565b600060208284031215610535576105346104df565b5b60006105438482850161050a565b91505092915050565b600081519050919050565b600082825260208201905092915050565b60005b8381101561058657808201518184015260208101905061056b565b60008484015250505050565b6000601f19601f8301169050919050565b60006105ae8261054c565b6105b88185610557565b93506105c8818560208601610568565b6105d181610592565b840191505092915050565b6105e5816104e9565b82525050565b6000606082019050818103600083015261060581866105a3565b905061061460208301856105dc565b818103604083015261062681846105a3565b9050949350505050565b600080fd5b600080fd5b7f4e487b7100000000000000000000000000000000000000000000000000000000600052604160045260246000fd5b61067282610592565b810181811067ffffffffffffffff821117156106915761069061063a565b5b80604052505050565b60006106a46104d5565b90506106b08282610669565b919050565b600067ffffffffffffffff8211156106d0576106cf61063a565b5b6106d982610592565b9050602081019050919050565b82818337600083830152505050565b6000610708610703846106b5565b61069a565b90508281526020810184848401111561072457610723610635565b5b61072f8482856106e6565b509392505050565b600082601f83011261074c5761074b610630565b5b813561075c8482602086016106f5565b91505092915050565b6000806000806080858703121561077f5761077e6104df565b5b600061078d8782880161050a565b945050602085013567ffffffffffffffff8111156107ae576107ad6104e4565b5b6107ba87828801610737565b93505060406107cb8782880161050a565b925050606085013567ffffffffffffffff8111156107ec576107eb6104e4565b5b6107f887828801610737565b91505092959194509250565b7f4e487b7100000000000000000000000000000000000000000000000000000000600052602260045260246000fd5b6000600282049050600182168061084b57607f821691505b60208210810361085e5761085d610804565b5b50919050565b60008190508160005260206000209050919050565b60006020601f8301049050919050565b600082821b905092915050565b6000600883026108c67fffffffffffffffffffffffffffffffffffffffffffffffffffffffffffffffff82610889565b6108d08683610889565b95508019841693508086168417925050509392505050565b6000819050919050565b600061090d610908610903846104e9565b6108e8565b6104e9565b9050919050565b6000819050919050565b610927836108f2565b61093b61093382610914565b848454610896565b825550505050565b600090565b610950610943565b61095b81848461091e565b505050565b5b8181101561097f57610974600082610948565b600181019050610961565b5050565b601f8211156109c45761099581610864565b61099e84610879565b810160208510156109ad578190505b6109c16109b985610879565b830182610960565b50505b505050565b600082821c905092915050565b60006109e7600019846008026109c9565b1980831691505092915050565b6000610a0083836109d6565b9150826002028217905092915050565b610a198261054c565b67ffffffffffffffff811115610a3257610a3161063a565b5b610a3c8254610833565b610a47828285610983565b600060209050601f831160018114610a7a5760008415610a68578287015190505b610a7285826109f4565b865550610ada565b601f198416610a8886610864565b60005b82811015610ab057848901518255600182019150602085019450602081019050610a8b565b86831015610acd5784890151610ac9601f8916826109d6565b8355505b6001600288020188555050505b505050505050565b7f53747564656e7420646f6573206e6f7420657869737400000000000000000000600082015250565b6000610b18601683610557565b9150610b2382610ae2565b602082019050919050565b60006020820190508181036000830152610b4781610b0b565b905091905056fea26469706673582212201c506c85de73789dfe5d80590c7d3debe1f509d69507b594d47f9914ddae2ad064736f6c63430008130033",
  "immutableReferences": {},
  "source": "// SPDX-License-Identifier: MIT\r\npragma solidity ^0.8.0;\r\n\r\ncontract StudentDetails {\r\n    struct Student {\r\n        string name;\r\n        uint age;\r\n        string course;\r\n    }\r\n\r\n    mapping(uint => Student) public students;\r\n\r\n    function setStudent(uint _id, string memory _name, uint _age, string memory _course) public {\r\n        students[_id] = Student(_name, _age, _course);\r\n    }\r\n\r\n    function getStudent(uint _id) public view returns (string memory, uint, string memory) {\r\n        Student memory student = students[_id];\r\n        return (student.name, student.age, student.course);\r\n    }\r\n\r\n    function updateStudent(uint _id, string memory _name, uint _age, string memory _course) public {\r\n        require(bytes(students[_id].name).length != 0, \"Student does not exist\");\r\n        students[_id] = Student(_name, _age, _course);\r\n    }\r\n}\r\n",
  "sourcePath": "C:\\Users\\S Karun Vikhash\\Desktop\\BC\\MySmartContract\\contracts\\StudentDetails.sol",
  "compiler": {
    "name": "solc",
    "version": "0.8.19+commit.7dd6d404.Emscripten.clang"
  },
  "schemaVersion": "3.4.16",
  "updatedAt": "2024-08-26T04:39:39.184Z",
  "networkType": "ethereum",
  "devdoc": {
    "kind": "dev",
    "methods": {},
    "version": 1
  },
  "userdoc": {
    "kind": "user",
    "methods": {},
    "version": 1
  }
}