{
  "contractName": "AppointmentContract",
  "abi": [
    {
      "inputs": [],
      "name": "appointmentCount",
      "outputs": [
        {
          "internalType": "uint256",
          "name": "",
          "type": "uint256"
        }
      ],
      "stateMutability": "view",
      "type": "function"
    },
    {
      "inputs": [
        {
          "internalType": "uint256",
          "name": "",
          "type": "uint256"
        }
      ],
      "name": "appointments",
      "outputs": [
        {
          "internalType": "uint256",
          "name": "patientId",
          "type": "uint256"
        },
        {
          "internalType": "uint256",
          "name": "doctorId",
          "type": "uint256"
        },
        {
          "internalType": "uint256",
          "name": "roomId",
          "type": "uint256"
        },
        {
          "internalType": "string",
          "name": "appointmentDate",
          "type": "string"
        }
      ],
      "stateMutability": "view",
      "type": "function"
    },
    {
      "inputs": [
        {
          "internalType": "uint256",
          "name": "_patientId",
          "type": "uint256"
        },
        {
          "internalType": "uint256",
          "name": "_doctorId",
          "type": "uint256"
        },
        {
          "internalType": "uint256",
          "name": "_roomId",
          "type": "uint256"
        },
        {
          "internalType": "string",
          "name": "_appointmentDate",
          "type": "string"
        }
      ],
      "name": "createAppointment",
      "outputs": [],
      "stateMutability": "nonpayable",
      "type": "function"
    },
    {
      "inputs": [
        {
          "internalType": "uint256",
          "name": "_id",
          "type": "uint256"
        }
      ],
      "name": "getAppointment",
      "outputs": [
        {
          "internalType": "uint256",
          "name": "",
          "type": "uint256"
        },
        {
          "internalType": "uint256",
          "name": "",
          "type": "uint256"
        },
        {
          "internalType": "uint256",
          "name": "",
          "type": "uint256"
        },
        {
          "internalType": "string",
          "name": "",
          "type": "string"
        }
      ],
      "stateMutability": "view",
      "type": "function"
    }
  ],
  "bytecode": "0x608060405234801561000f575f80fd5b506109a78061001d5f395ff3fe608060405234801561000f575f80fd5b506004361061004a575f3560e01c80630d943da21461004e57806312dc901314610081578063891b14d3146100b4578063eebc3fb2146100d0575b5f80fd5b61006860048036038101906100639190610361565b6100ee565b6040516100789493929190610425565b60405180910390f35b61009b60048036038101906100969190610361565b6101e1565b6040516100ab9493929190610425565b60405180910390f35b6100ce60048036038101906100c9919061059b565b610292565b005b6100d8610317565b6040516100e5919061061b565b60405180910390f35b5f805f60605f805f8781526020019081526020015f206040518060800160405290815f8201548152602001600182015481526020016002820154815260200160038201805461013c90610661565b80601f016020809104026020016040519081016040528092919081815260200182805461016890610661565b80156101b35780601f1061018a576101008083540402835291602001916101b3565b820191905f5260205f20905b81548152906001019060200180831161019657829003601f168201915b5050505050815250509050805f01518160200151826040015183606001519450945094509450509193509193565b5f602052805f5260405f205f91509050805f01549080600101549080600201549080600301805461021190610661565b80601f016020809104026020016040519081016040528092919081815260200182805461023d90610661565b80156102885780601f1061025f57610100808354040283529160200191610288565b820191905f5260205f20905b81548152906001019060200180831161026b57829003601f168201915b5050505050905084565b60015f8154809291906102a4906106be565b91905055506040518060800160405280858152602001848152602001838152602001828152505f8060015481526020019081526020015f205f820151815f01556020820151816001015560408201518160020155606082015181600301908161030d91906108a2565b5090505050505050565b60015481565b5f604051905090565b5f80fd5b5f80fd5b5f819050919050565b6103408161032e565b811461034a575f80fd5b50565b5f8135905061035b81610337565b92915050565b5f6020828403121561037657610375610326565b5b5f6103838482850161034d565b91505092915050565b6103958161032e565b82525050565b5f81519050919050565b5f82825260208201905092915050565b5f5b838110156103d25780820151818401526020810190506103b7565b5f8484015250505050565b5f601f19601f8301169050919050565b5f6103f78261039b565b61040181856103a5565b93506104118185602086016103b5565b61041a816103dd565b840191505092915050565b5f6080820190506104385f83018761038c565b610445602083018661038c565b610452604083018561038c565b818103606083015261046481846103ed565b905095945050505050565b5f80fd5b5f80fd5b7f4e487b71000000000000000000000000000000000000000000000000000000005f52604160045260245ffd5b6104ad826103dd565b810181811067ffffffffffffffff821117156104cc576104cb610477565b5b80604052505050565b5f6104de61031d565b90506104ea82826104a4565b919050565b5f67ffffffffffffffff82111561050957610508610477565b5b610512826103dd565b9050602081019050919050565b828183375f83830152505050565b5f61053f61053a846104ef565b6104d5565b90508281526020810184848401111561055b5761055a610473565b5b61056684828561051f565b509392505050565b5f82601f8301126105825761058161046f565b5b813561059284826020860161052d565b91505092915050565b5f805f80608085870312156105b3576105b2610326565b5b5f6105c08782880161034d565b94505060206105d18782880161034d565b93505060406105e28782880161034d565b925050606085013567ffffffffffffffff8111156106035761060261032a565b5b61060f8782880161056e565b91505092959194509250565b5f60208201905061062e5f83018461038c565b92915050565b7f4e487b71000000000000000000000000000000000000000000000000000000005f52602260045260245ffd5b5f600282049050600182168061067857607f821691505b60208210810361068b5761068a610634565b5b50919050565b7f4e487b71000000000000000000000000000000000000000000000000000000005f52601160045260245ffd5b5f6106c88261032e565b91507fffffffffffffffffffffffffffffffffffffffffffffffffffffffffffffffff82036106fa576106f9610691565b5b600182019050919050565b5f819050815f5260205f209050919050565b5f6020601f8301049050919050565b5f82821b905092915050565b5f600883026107617fffffffffffffffffffffffffffffffffffffffffffffffffffffffffffffffff82610726565b61076b8683610726565b95508019841693508086168417925050509392505050565b5f819050919050565b5f6107a66107a161079c8461032e565b610783565b61032e565b9050919050565b5f819050919050565b6107bf8361078c565b6107d36107cb826107ad565b848454610732565b825550505050565b5f90565b6107e76107db565b6107f28184846107b6565b505050565b5b818110156108155761080a5f826107df565b6001810190506107f8565b5050565b601f82111561085a5761082b81610705565b61083484610717565b81016020851015610843578190505b61085761084f85610717565b8301826107f7565b50505b505050565b5f82821c905092915050565b5f61087a5f198460080261085f565b1980831691505092915050565b5f610892838361086b565b9150826002028217905092915050565b6108ab8261039b565b67ffffffffffffffff8111156108c4576108c3610477565b5b6108ce8254610661565b6108d9828285610819565b5f60209050601f83116001811461090a575f84156108f8578287015190505b6109028582610887565b865550610969565b601f19841661091886610705565b5f5b8281101561093f5784890151825560018201915060208501945060208101905061091a565b8683101561095c5784890151610958601f89168261086b565b8355505b6001600288020188555050505b50505050505056fea26469706673582212205508619c95c11bca7ab8e8a64680a1138ced047016324bb8b58768d12d6c9c2c64736f6c63430008150033",
  "immutableReferences": {},
  "source": "// SPDX-License-Identifier: MIT\npragma solidity ^0.8.0;\n\ncontract AppointmentContract {\n    struct Appointment {\n        uint patientId;\n        uint doctorId;\n        uint roomId;\n        string appointmentDate; // Date of the appointment\n    }\n\n    mapping(uint => Appointment) public appointments; // Public access to appointments\n    uint public appointmentCount; // Count of appointments\n\n    // Function to create an appointment\n    function createAppointment(uint _patientId, uint _doctorId, uint _roomId, string memory _appointmentDate) public {\n        appointmentCount++;\n        appointments[appointmentCount] = Appointment(_patientId, _doctorId, _roomId, _appointmentDate);\n    }\n\n    // Function to retrieve appointment details\n    function getAppointment(uint _id) public view returns (uint, uint, uint, string memory) {\n        Appointment memory appointment = appointments[_id];\n        return (appointment.patientId, appointment.doctorId, appointment.roomId, appointment.appointmentDate);\n    }\n}\n",
  "sourcePath": "/Users/hareeshsenthil/Scalable_Healthcare_Model/vanilla BC/contracts/appointment.sol",
  "compiler": {
    "name": "solc",
    "version": "0.8.21+commit.d9974bed.Emscripten.clang"
  },
  "schemaVersion": "3.4.16",
  "updatedAt": "2024-09-23T06:24:03.788Z",
  "devdoc": {
    "kind": "dev",
    "methods": {},
    "version": 1
  },
  "userdoc": {
    "kind": "user",
    "methods": {},
    "version": 1
  }
}