{
  "contractName": "DoctorContract",
  "abi": [
    {
      "inputs": [],
      "name": "doctorCount",
      "outputs": [
        {
          "internalType": "uint256",
          "name": "",
          "type": "uint256"
        }
      ],
      "stateMutability": "view",
      "type": "function"
    },
    {
      "inputs": [
        {
          "internalType": "uint256",
          "name": "",
          "type": "uint256"
        }
      ],
      "name": "doctors",
      "outputs": [
        {
          "internalType": "string",
          "name": "name",
          "type": "string"
        },
        {
          "internalType": "string",
          "name": "department",
          "type": "string"
        },
        {
          "internalType": "uint256",
          "name": "age",
          "type": "uint256"
        }
      ],
      "stateMutability": "view",
      "type": "function"
    },
    {
      "inputs": [
        {
          "internalType": "string",
          "name": "_name",
          "type": "string"
        },
        {
          "internalType": "uint256",
          "name": "_age",
          "type": "uint256"
        },
        {
          "internalType": "string",
          "name": "_department",
          "type": "string"
        }
      ],
      "name": "addDoctor",
      "outputs": [],
      "stateMutability": "nonpayable",
      "type": "function"
    },
    {
      "inputs": [
        {
          "internalType": "uint256",
          "name": "_id",
          "type": "uint256"
        }
      ],
      "name": "getDoctor",
      "outputs": [
        {
          "internalType": "string",
          "name": "",
          "type": "string"
        },
        {
          "internalType": "string",
          "name": "",
          "type": "string"
        },
        {
          "internalType": "uint256",
          "name": "",
          "type": "uint256"
        }
      ],
      "stateMutability": "view",
      "type": "function"
    }
  ],
  "bytecode": "0x608060405234801561000f575f80fd5b50610a958061001d5f395ff3fe608060405234801561000f575f80fd5b506004361061004a575f3560e01c806369b0a72d1461004e5780636efb1b841461008057806378522bc4146100b2578063ed59fead146100d0575b5f80fd5b6100686004803603810190610063919061044e565b6100ec565b60405161007793929190610512565b60405180910390f35b61009a6004803603810190610095919061044e565b610253565b6040516100a993929190610512565b60405180910390f35b6100ba610384565b6040516100c79190610555565b60405180910390f35b6100ea60048036038101906100e5919061069a565b61038a565b005b6060805f805f808681526020019081526020015f206040518060600160405290815f8201805461011b9061074f565b80601f01602080910402602001604051908101604052809291908181526020018280546101479061074f565b80156101925780601f1061016957610100808354040283529160200191610192565b820191905f5260205f20905b81548152906001019060200180831161017557829003601f168201915b505050505081526020016001820180546101ab9061074f565b80601f01602080910402602001604051908101604052809291908181526020018280546101d79061074f565b80156102225780601f106101f957610100808354040283529160200191610222565b820191905f5260205f20905b81548152906001019060200180831161020557829003601f168201915b505050505081526020016002820154815250509050805f015181602001518260400151935093509350509193909250565b5f602052805f5260405f205f91509050805f0180546102719061074f565b80601f016020809104026020016040519081016040528092919081815260200182805461029d9061074f565b80156102e85780601f106102bf576101008083540402835291602001916102e8565b820191905f5260205f20905b8154815290600101906020018083116102cb57829003601f168201915b5050505050908060010180546102fd9061074f565b80601f01602080910402602001604051908101604052809291908181526020018280546103299061074f565b80156103745780601f1061034b57610100808354040283529160200191610374565b820191905f5260205f20905b81548152906001019060200180831161035757829003601f168201915b5050505050908060020154905083565b60015481565b60015f81548092919061039c906107ac565b91905055506040518060600160405280848152602001828152602001838152505f8060015481526020019081526020015f205f820151815f0190816103e19190610990565b5060208201518160010190816103f79190610990565b5060408201518160020155905050505050565b5f604051905090565b5f80fd5b5f80fd5b5f819050919050565b61042d8161041b565b8114610437575f80fd5b50565b5f8135905061044881610424565b92915050565b5f6020828403121561046357610462610413565b5b5f6104708482850161043a565b91505092915050565b5f81519050919050565b5f82825260208201905092915050565b5f5b838110156104b0578082015181840152602081019050610495565b5f8484015250505050565b5f601f19601f8301169050919050565b5f6104d582610479565b6104df8185610483565b93506104ef818560208601610493565b6104f8816104bb565b840191505092915050565b61050c8161041b565b82525050565b5f6060820190508181035f83015261052a81866104cb565b9050818103602083015261053e81856104cb565b905061054d6040830184610503565b949350505050565b5f6020820190506105685f830184610503565b92915050565b5f80fd5b5f80fd5b7f4e487b71000000000000000000000000000000000000000000000000000000005f52604160045260245ffd5b6105ac826104bb565b810181811067ffffffffffffffff821117156105cb576105ca610576565b5b80604052505050565b5f6105dd61040a565b90506105e982826105a3565b919050565b5f67ffffffffffffffff82111561060857610607610576565b5b610611826104bb565b9050602081019050919050565b828183375f83830152505050565b5f61063e610639846105ee565b6105d4565b90508281526020810184848401111561065a57610659610572565b5b61066584828561061e565b509392505050565b5f82601f8301126106815761068061056e565b5b813561069184826020860161062c565b91505092915050565b5f805f606084860312156106b1576106b0610413565b5b5f84013567ffffffffffffffff8111156106ce576106cd610417565b5b6106da8682870161066d565b93505060206106eb8682870161043a565b925050604084013567ffffffffffffffff81111561070c5761070b610417565b5b6107188682870161066d565b9150509250925092565b7f4e487b71000000000000000000000000000000000000000000000000000000005f52602260045260245ffd5b5f600282049050600182168061076657607f821691505b60208210810361077957610778610722565b5b50919050565b7f4e487b71000000000000000000000000000000000000000000000000000000005f52601160045260245ffd5b5f6107b68261041b565b91507fffffffffffffffffffffffffffffffffffffffffffffffffffffffffffffffff82036107e8576107e761077f565b5b600182019050919050565b5f819050815f5260205f209050919050565b5f6020601f8301049050919050565b5f82821b905092915050565b5f6008830261084f7fffffffffffffffffffffffffffffffffffffffffffffffffffffffffffffffff82610814565b6108598683610814565b95508019841693508086168417925050509392505050565b5f819050919050565b5f61089461088f61088a8461041b565b610871565b61041b565b9050919050565b5f819050919050565b6108ad8361087a565b6108c16108b98261089b565b848454610820565b825550505050565b5f90565b6108d56108c9565b6108e08184846108a4565b505050565b5b81811015610903576108f85f826108cd565b6001810190506108e6565b5050565b601f82111561094857610919816107f3565b61092284610805565b81016020851015610931578190505b61094561093d85610805565b8301826108e5565b50505b505050565b5f82821c905092915050565b5f6109685f198460080261094d565b1980831691505092915050565b5f6109808383610959565b9150826002028217905092915050565b61099982610479565b67ffffffffffffffff8111156109b2576109b1610576565b5b6109bc825461074f565b6109c7828285610907565b5f60209050601f8311600181146109f8575f84156109e6578287015190505b6109f08582610975565b865550610a57565b601f198416610a06866107f3565b5f5b82811015610a2d57848901518255600182019150602085019450602081019050610a08565b86831015610a4a5784890151610a46601f891682610959565b8355505b6001600288020188555050505b50505050505056fea2646970667358221220d57642ef9c52c8dbdf8d7722ca027905331df211ccfd186d6782aeafd04bfe1d64736f6c63430008150033",
  "immutableReferences": {},
  "source": "// SPDX-License-Identifier: MIT\npragma solidity ^0.8.0;\n\ncontract DoctorContract {\n    struct Doctor {\n        string name;\n        string department;\n        uint age;\n    }\n\n    mapping(uint => Doctor) public doctors; // Public access to doctor records\n    uint public doctorCount; // Count of doctors\n\n    // Function to add a doctor\n    function addDoctor(string memory _name, uint _age, string memory _department) public {\n        doctorCount++; // Increment doctor count\n        // Add the new doctor to the mapping\n        doctors[doctorCount] = Doctor(_name, _department, _age);\n    }\n\n    // Function to retrieve doctor details\n    function getDoctor(uint _id) public view returns (string memory, string memory, uint) {\n        Doctor memory doctor = doctors[_id];\n        return (doctor.name, doctor.department, doctor.age);\n    }\n}\n",
  "sourcePath": "/Users/hareeshsenthil/Scalable_Healthcare_Model/vanilla BC/contracts/doctor.sol",
  "compiler": {
    "name": "solc",
    "version": "0.8.21+commit.d9974bed.Emscripten.clang"
  },
  "schemaVersion": "3.4.16",
  "updatedAt": "2024-09-23T06:24:03.791Z",
  "devdoc": {
    "kind": "dev",
    "methods": {},
    "version": 1
  },
  "userdoc": {
    "kind": "user",
    "methods": {},
    "version": 1
  }
}