{
  "contractName": "AppointmentContract",
  "abi": [
    {
      "inputs": [],
      "stateMutability": "nonpayable",
      "type": "constructor"
    },
    {
      "anonymous": false,
      "inputs": [
        {
          "indexed": false,
          "internalType": "address",
          "name": "requester",
          "type": "address"
        }
      ],
      "name": "AccessRequested",
      "type": "event"
    },
    {
      "inputs": [],
      "name": "admin",
      "outputs": [
        {
          "internalType": "address",
          "name": "",
          "type": "address"
        }
      ],
      "stateMutability": "view",
      "type": "function",
      "constant": true
    },
    {
      "inputs": [
        {
          "internalType": "uint256",
          "name": "",
          "type": "uint256"
        }
      ],
      "name": "appointments",
      "outputs": [
        {
          "internalType": "uint256",
          "name": "patientId",
          "type": "uint256"
        },
        {
          "internalType": "uint256",
          "name": "doctorId",
          "type": "uint256"
        },
        {
          "internalType": "uint256",
          "name": "roomId",
          "type": "uint256"
        },
        {
          "internalType": "string",
          "name": "appointmentDate",
          "type": "string"
        }
      ],
      "stateMutability": "view",
      "type": "function",
      "constant": true
    },
    {
      "inputs": [
        {
          "internalType": "address",
          "name": "",
          "type": "address"
        }
      ],
      "name": "authorizedAddresses",
      "outputs": [
        {
          "internalType": "bool",
          "name": "",
          "type": "bool"
        }
      ],
      "stateMutability": "view",
      "type": "function",
      "constant": true
    },
    {
      "inputs": [
        {
          "internalType": "uint256",
          "name": "_appointmentId",
          "type": "uint256"
        },
        {
          "internalType": "uint256",
          "name": "_patientId",
          "type": "uint256"
        },
        {
          "internalType": "uint256",
          "name": "_doctorId",
          "type": "uint256"
        },
        {
          "internalType": "uint256",
          "name": "_roomId",
          "type": "uint256"
        },
        {
          "internalType": "string",
          "name": "_appointmentDate",
          "type": "string"
        }
      ],
      "name": "createAppointment",
      "outputs": [],
      "stateMutability": "nonpayable",
      "type": "function"
    },
    {
      "inputs": [],
      "name": "requestAccess",
      "outputs": [],
      "stateMutability": "nonpayable",
      "type": "function"
    },
    {
      "inputs": [
        {
          "internalType": "uint256",
          "name": "_appointmentId",
          "type": "uint256"
        }
      ],
      "name": "getAppointment",
      "outputs": [
        {
          "internalType": "uint256",
          "name": "",
          "type": "uint256"
        },
        {
          "internalType": "uint256",
          "name": "",
          "type": "uint256"
        },
        {
          "internalType": "uint256",
          "name": "",
          "type": "uint256"
        },
        {
          "internalType": "string",
          "name": "",
          "type": "string"
        }
      ],
      "stateMutability": "view",
      "type": "function",
      "constant": true
    },
    {
      "inputs": [
        {
          "internalType": "address",
          "name": "_address",
          "type": "address"
        }
      ],
      "name": "authorizeAddress",
      "outputs": [],
      "stateMutability": "nonpayable",
      "type": "function"
    },
    {
      "inputs": [
        {
          "internalType": "address",
          "name": "_address",
          "type": "address"
        }
      ],
      "name": "revokeAddress",
      "outputs": [],
      "stateMutability": "nonpayable",
      "type": "function"
    }
  ],
  "bytecode": "0x608060405234801561001057600080fd5b5033600260006101000a81548173ffffffffffffffffffffffffffffffffffffffff021916908373ffffffffffffffffffffffffffffffffffffffff1602179055506001806000600260009054906101000a900473ffffffffffffffffffffffffffffffffffffffff1673ffffffffffffffffffffffffffffffffffffffff1673ffffffffffffffffffffffffffffffffffffffff16815260200190815260200160002060006101000a81548160ff021916908315150217905550610e67806100da6000396000f3fe608060405234801561001057600080fd5b50600436106100885760003560e01c8063a7cba99c1161005b578063a7cba99c1461012b578063eb2f481714610147578063f19e207e14610151578063f851a4401461018157610088565b80630d943da21461008d57806312dc9013146100c0578063317a7aec146100f35780634a5db3b51461010f575b600080fd5b6100a760048036038101906100a291906106f2565b61019f565b6040516100b794939291906107be565b60405180910390f35b6100da60048036038101906100d591906106f2565b61029b565b6040516100ea94939291906107be565b60405180910390f35b61010d60048036038101906101089190610868565b610353565b005b61012960048036038101906101249190610868565b61043e565b005b610145600480360381019061014091906109ca565b610528565b005b61014f610629565b005b61016b60048036038101906101669190610868565b610662565b6040516101789190610a7c565b60405180910390f35b610189610682565b6040516101969190610aa6565b60405180910390f35b6000806000606060008060008781526020019081526020016000206040518060800160405290816000820154815260200160018201548152602001600282015481526020016003820180546101f390610af0565b80601f016020809104026020016040519081016040528092919081815260200182805461021f90610af0565b801561026c5780601f106102415761010080835404028352916020019161026c565b820191906000526020600020905b81548152906001019060200180831161024f57829003601f168201915b505050505081525050905080600001518160200151826040015183606001519450945094509450509193509193565b60006020528060005260406000206000915090508060000154908060010154908060020154908060030180546102d090610af0565b80601f01602080910402602001604051908101604052809291908181526020018280546102fc90610af0565b80156103495780601f1061031e57610100808354040283529160200191610349565b820191906000526020600020905b81548152906001019060200180831161032c57829003601f168201915b5050505050905084565b600260009054906101000a900473ffffffffffffffffffffffffffffffffffffffff1673ffffffffffffffffffffffffffffffffffffffff163373ffffffffffffffffffffffffffffffffffffffff16146103e3576040517f08c379a00000000000000000000000000000000000000000000000000000000081526004016103da90610b93565b60405180910390fd5b6000600160008373ffffffffffffffffffffffffffffffffffffffff1673ffffffffffffffffffffffffffffffffffffffff16815260200190815260200160002060006101000a81548160ff02191690831515021790555050565b600260009054906101000a900473ffffffffffffffffffffffffffffffffffffffff1673ffffffffffffffffffffffffffffffffffffffff163373ffffffffffffffffffffffffffffffffffffffff16146104ce576040517f08c379a00000000000000000000000000000000000000000000000000000000081526004016104c590610b93565b60405180910390fd5b60018060008373ffffffffffffffffffffffffffffffffffffffff1673ffffffffffffffffffffffffffffffffffffffff16815260200190815260200160002060006101000a81548160ff02191690831515021790555050565b600260009054906101000a900473ffffffffffffffffffffffffffffffffffffffff1673ffffffffffffffffffffffffffffffffffffffff163373ffffffffffffffffffffffffffffffffffffffff16146105b8576040517f08c379a00000000000000000000000000000000000000000000000000000000081526004016105af90610b93565b60405180910390fd5b604051806080016040528085815260200184815260200183815260200182815250600080878152602001908152602001600020600082015181600001556020820151816001015560408201518160020155606082015181600301908161061e9190610d5f565b509050505050505050565b7f384b79324edad69b6a420b1328c852f2e169ee8d77c5c6011b1fe6aa0f7cd6c3336040516106589190610aa6565b60405180910390a1565b60016020528060005260406000206000915054906101000a900460ff1681565b600260009054906101000a900473ffffffffffffffffffffffffffffffffffffffff1681565b6000604051905090565b600080fd5b600080fd5b6000819050919050565b6106cf816106bc565b81146106da57600080fd5b50565b6000813590506106ec816106c6565b92915050565b600060208284031215610708576107076106b2565b5b6000610716848285016106dd565b91505092915050565b610728816106bc565b82525050565b600081519050919050565b600082825260208201905092915050565b60005b8381101561076857808201518184015260208101905061074d565b60008484015250505050565b6000601f19601f8301169050919050565b60006107908261072e565b61079a8185610739565b93506107aa81856020860161074a565b6107b381610774565b840191505092915050565b60006080820190506107d3600083018761071f565b6107e0602083018661071f565b6107ed604083018561071f565b81810360608301526107ff8184610785565b905095945050505050565b600073ffffffffffffffffffffffffffffffffffffffff82169050919050565b60006108358261080a565b9050919050565b6108458161082a565b811461085057600080fd5b50565b6000813590506108628161083c565b92915050565b60006020828403121561087e5761087d6106b2565b5b600061088c84828501610853565b91505092915050565b600080fd5b600080fd5b7f4e487b7100000000000000000000000000000000000000000000000000000000600052604160045260246000fd5b6108d782610774565b810181811067ffffffffffffffff821117156108f6576108f561089f565b5b80604052505050565b60006109096106a8565b905061091582826108ce565b919050565b600067ffffffffffffffff8211156109355761093461089f565b5b61093e82610774565b9050602081019050919050565b82818337600083830152505050565b600061096d6109688461091a565b6108ff565b9050828152602081018484840111156109895761098861089a565b5b61099484828561094b565b509392505050565b600082601f8301126109b1576109b0610895565b5b81356109c184826020860161095a565b91505092915050565b600080600080600060a086880312156109e6576109e56106b2565b5b60006109f4888289016106dd565b9550506020610a05888289016106dd565b9450506040610a16888289016106dd565b9350506060610a27888289016106dd565b925050608086013567ffffffffffffffff811115610a4857610a476106b7565b5b610a548882890161099c565b9150509295509295909350565b60008115159050919050565b610a7681610a61565b82525050565b6000602082019050610a916000830184610a6d565b92915050565b610aa08161082a565b82525050565b6000602082019050610abb6000830184610a97565b92915050565b7f4e487b7100000000000000000000000000000000000000000000000000000000600052602260045260246000fd5b60006002820490506001821680610b0857607f821691505b602082108103610b1b57610b1a610ac1565b5b50919050565b7f4f6e6c792061646d696e2063616e20637265617465206f72207570646174652060008201527f6170706f696e746d656e74730000000000000000000000000000000000000000602082015250565b6000610b7d602c83610739565b9150610b8882610b21565b604082019050919050565b60006020820190508181036000830152610bac81610b70565b9050919050565b60008190508160005260206000209050919050565b60006020601f8301049050919050565b600082821b905092915050565b600060088302610c157fffffffffffffffffffffffffffffffffffffffffffffffffffffffffffffffff82610bd8565b610c1f8683610bd8565b95508019841693508086168417925050509392505050565b6000819050919050565b6000610c5c610c57610c52846106bc565b610c37565b6106bc565b9050919050565b6000819050919050565b610c7683610c41565b610c8a610c8282610c63565b848454610be5565b825550505050565b600090565b610c9f610c92565b610caa818484610c6d565b505050565b5b81811015610cce57610cc3600082610c97565b600181019050610cb0565b5050565b601f821115610d1357610ce481610bb3565b610ced84610bc8565b81016020851015610cfc578190505b610d10610d0885610bc8565b830182610caf565b50505b505050565b600082821c905092915050565b6000610d3660001984600802610d18565b1980831691505092915050565b6000610d4f8383610d25565b9150826002028217905092915050565b610d688261072e565b67ffffffffffffffff811115610d8157610d8061089f565b5b610d8b8254610af0565b610d96828285610cd2565b600060209050601f831160018114610dc95760008415610db7578287015190505b610dc18582610d43565b865550610e29565b601f198416610dd786610bb3565b60005b82811015610dff57848901518255600182019150602085019450602081019050610dda565b86831015610e1c5784890151610e18601f891682610d25565b8355505b6001600288020188555050505b50505050505056fea2646970667358221220aa10b2e68ecfdb083288e53120ab8edd91fac2fef3b5c84316ee390464a5ec9b64736f6c63430008130033",
  "immutableReferences": {},
  "source": "// SPDX-License-Identifier: MIT\npragma solidity ^0.8.19;\n\n/// @title AppointmentContract\n/// @dev A smart contract for managing appointments between patients and doctors\ncontract AppointmentContract {\n    // Struct representing an Appointment\n    struct Appointment {\n        uint patientId;             // Unique identifier for the patient\n        uint doctorId;              // Unique identifier for the doctor\n        uint roomId;                // Room ID where the appointment takes place\n        string appointmentDate;     // Date of the appointment in string format\n    }\n\n    // Mapping to store appointments by their unique appointment ID\n    mapping(uint => Appointment) public appointments;\n\n    // Mapping to store authorized addresses\n    mapping(address => bool) public authorizedAddresses;\n\n    // Address of the contract admin\n    address public admin;\n\n    // Event for access requests\n    event AccessRequested(address requester);\n\n    /// @dev Constructor that sets the admin to the account that deploys the contract\n    constructor() {\n        admin = msg.sender; // Set the deploying address as admin\n        authorizedAddresses[admin] = true; // Authorize the admin\n    }\n\n    /// @dev Modifier to restrict access to admin-only functions\n    modifier onlyAdmin() {\n        require(msg.sender == admin, \"Only admin can create or update appointments\");\n        _;\n    }\n\n    /// @notice Create a new appointment\n    /// @dev This function can only be called by the admin\n    /// @param _appointmentId Unique ID for the appointment\n    /// @param _patientId Unique ID of the patient\n    /// @param _doctorId Unique ID of the doctor\n    /// @param _roomId ID of the room for the appointment\n    /// @param _appointmentDate Date of the appointment in string format\n    function createAppointment(\n        uint _appointmentId,\n        uint _patientId,\n        uint _doctorId,\n        uint _roomId,\n        string memory _appointmentDate\n    ) public onlyAdmin {\n        // Create and store the appointment in the mapping\n        appointments[_appointmentId] = Appointment(_patientId, _doctorId, _roomId, _appointmentDate);\n    }\n\n    /// @notice Request access to the contract\n    /// @dev Emits an event for access requests\n    function requestAccess() public {\n        emit AccessRequested(msg.sender);\n        // Optionally, you can add logic to handle requests (e.g., notifying the admin)\n    }\n\n    /// @notice Get details of a specific appointment\n    /// @dev Public function to retrieve appointment information\n    /// @param _appointmentId Unique ID of the appointment\n    /// @return patientId ID of the patient\n    /// @return doctorId ID of the doctor\n    /// @return roomId ID of the room\n    /// @return appointmentDate Date of the appointment\n    function getAppointment(uint _appointmentId) public view returns (uint, uint, uint, string memory) {\n        // Retrieve the appointment from the mapping\n        Appointment memory appointment = appointments[_appointmentId];\n        return (appointment.patientId, appointment.doctorId, appointment.roomId, appointment.appointmentDate);\n    }\n\n    /// @notice Authorize an address\n    /// @dev This function can only be called by the admin\n    /// @param _address Address to authorize\n    function authorizeAddress(address _address) public onlyAdmin {\n        authorizedAddresses[_address] = true;\n    }\n\n    /// @notice Revoke authorization from an address\n    /// @dev This function can only be called by the admin\n    /// @param _address Address to revoke authorization\n    function revokeAddress(address _address) public onlyAdmin {\n        authorizedAddresses[_address] = false;\n    }\n}\n",
  "sourcePath": "/Users/hareeshsenthil/karunPermission/Scalable_Healthcare_Model_Blockchain/contracts/appointment.sol",
  "compiler": {
    "name": "solc",
    "version": "0.8.19+commit.7dd6d404.Emscripten.clang"
  },
  "schemaVersion": "3.4.16",
  "updatedAt": "2024-10-03T11:03:06.457Z",
  "networkType": "ethereum",
  "devdoc": {
    "details": "A smart contract for managing appointments between patients and doctors",
    "kind": "dev",
    "methods": {
      "authorizeAddress(address)": {
        "details": "This function can only be called by the admin",
        "params": {
          "_address": "Address to authorize"
        }
      },
      "constructor": {
        "details": "Constructor that sets the admin to the account that deploys the contract"
      },
      "createAppointment(uint256,uint256,uint256,uint256,string)": {
        "details": "This function can only be called by the admin",
        "params": {
          "_appointmentDate": "Date of the appointment in string format",
          "_appointmentId": "Unique ID for the appointment",
          "_doctorId": "Unique ID of the doctor",
          "_patientId": "Unique ID of the patient",
          "_roomId": "ID of the room for the appointment"
        }
      },
      "getAppointment(uint256)": {
        "details": "Public function to retrieve appointment information",
        "params": {
          "_appointmentId": "Unique ID of the appointment"
        },
        "returns": {
          "_0": "patientId ID of the patient",
          "_1": "doctorId ID of the doctor",
          "_2": "roomId ID of the room",
          "_3": "appointmentDate Date of the appointment"
        }
      },
      "requestAccess()": {
        "details": "Emits an event for access requests"
      },
      "revokeAddress(address)": {
        "details": "This function can only be called by the admin",
        "params": {
          "_address": "Address to revoke authorization"
        }
      }
    },
    "title": "AppointmentContract",
    "version": 1
  },
  "userdoc": {
    "kind": "user",
    "methods": {
      "authorizeAddress(address)": {
        "notice": "Authorize an address"
      },
      "createAppointment(uint256,uint256,uint256,uint256,string)": {
        "notice": "Create a new appointment"
      },
      "getAppointment(uint256)": {
        "notice": "Get details of a specific appointment"
      },
      "requestAccess()": {
        "notice": "Request access to the contract"
      },
      "revokeAddress(address)": {
        "notice": "Revoke authorization from an address"
      }
    },
    "version": 1
  }
}