{
  "contractName": "AppointmentContract",
  "abi": [
    {
      "inputs": [],
      "stateMutability": "nonpayable",
      "type": "constructor"
    },
    {
      "inputs": [],
      "name": "admin",
      "outputs": [
        {
          "internalType": "address",
          "name": "",
          "type": "address"
        }
      ],
      "stateMutability": "view",
      "type": "function",
      "constant": true
    },
    {
      "inputs": [
        {
          "internalType": "uint256",
          "name": "",
          "type": "uint256"
        }
      ],
      "name": "appointments",
      "outputs": [
        {
          "internalType": "uint256",
          "name": "patientId",
          "type": "uint256"
        },
        {
          "internalType": "uint256",
          "name": "doctorId",
          "type": "uint256"
        },
        {
          "internalType": "uint256",
          "name": "roomId",
          "type": "uint256"
        },
        {
          "internalType": "string",
          "name": "appointmentDate",
          "type": "string"
        }
      ],
      "stateMutability": "view",
      "type": "function",
      "constant": true
    },
    {
      "inputs": [
        {
          "internalType": "uint256",
          "name": "_appointmentId",
          "type": "uint256"
        },
        {
          "internalType": "uint256",
          "name": "_patientId",
          "type": "uint256"
        },
        {
          "internalType": "uint256",
          "name": "_doctorId",
          "type": "uint256"
        },
        {
          "internalType": "uint256",
          "name": "_roomId",
          "type": "uint256"
        },
        {
          "internalType": "string",
          "name": "_appointmentDate",
          "type": "string"
        }
      ],
      "name": "createAppointment",
      "outputs": [],
      "stateMutability": "nonpayable",
      "type": "function"
    },
    {
      "inputs": [
        {
          "internalType": "uint256",
          "name": "_appointmentId",
          "type": "uint256"
        }
      ],
      "name": "getAppointment",
      "outputs": [
        {
          "internalType": "uint256",
          "name": "",
          "type": "uint256"
        },
        {
          "internalType": "uint256",
          "name": "",
          "type": "uint256"
        },
        {
          "internalType": "uint256",
          "name": "",
          "type": "uint256"
        },
        {
          "internalType": "string",
          "name": "",
          "type": "string"
        }
      ],
      "stateMutability": "view",
      "type": "function",
      "constant": true
    }
  ],
  "bytecode": "0x608060405234801561001057600080fd5b5033600160006101000a81548173ffffffffffffffffffffffffffffffffffffffff021916908373ffffffffffffffffffffffffffffffffffffffff160217905550610afc806100616000396000f3fe608060405234801561001057600080fd5b506004361061004c5760003560e01c80630d943da21461005157806312dc901314610084578063a7cba99c146100b7578063f851a440146100d3575b600080fd5b61006b60048036038101906100669190610416565b6100f1565b60405161007b94939291906104e2565b60405180910390f35b61009e60048036038101906100999190610416565b6101ed565b6040516100ae94939291906104e2565b60405180910390f35b6100d160048036038101906100cc9190610663565b6102a5565b005b6100db6103a6565b6040516100e8919061073b565b60405180910390f35b60008060006060600080600087815260200190815260200160002060405180608001604052908160008201548152602001600182015481526020016002820154815260200160038201805461014590610785565b80601f016020809104026020016040519081016040528092919081815260200182805461017190610785565b80156101be5780601f10610193576101008083540402835291602001916101be565b820191906000526020600020905b8154815290600101906020018083116101a157829003601f168201915b505050505081525050905080600001518160200151826040015183606001519450945094509450509193509193565b600060205280600052604060002060009150905080600001549080600101549080600201549080600301805461022290610785565b80601f016020809104026020016040519081016040528092919081815260200182805461024e90610785565b801561029b5780601f106102705761010080835404028352916020019161029b565b820191906000526020600020905b81548152906001019060200180831161027e57829003601f168201915b5050505050905084565b600160009054906101000a900473ffffffffffffffffffffffffffffffffffffffff1673ffffffffffffffffffffffffffffffffffffffff163373ffffffffffffffffffffffffffffffffffffffff1614610335576040517f08c379a000000000000000000000000000000000000000000000000000000000815260040161032c90610828565b60405180910390fd5b604051806080016040528085815260200184815260200183815260200182815250600080878152602001908152602001600020600082015181600001556020820151816001015560408201518160020155606082015181600301908161039b91906109f4565b509050505050505050565b600160009054906101000a900473ffffffffffffffffffffffffffffffffffffffff1681565b6000604051905090565b600080fd5b600080fd5b6000819050919050565b6103f3816103e0565b81146103fe57600080fd5b50565b600081359050610410816103ea565b92915050565b60006020828403121561042c5761042b6103d6565b5b600061043a84828501610401565b91505092915050565b61044c816103e0565b82525050565b600081519050919050565b600082825260208201905092915050565b60005b8381101561048c578082015181840152602081019050610471565b60008484015250505050565b6000601f19601f8301169050919050565b60006104b482610452565b6104be818561045d565b93506104ce81856020860161046e565b6104d781610498565b840191505092915050565b60006080820190506104f76000830187610443565b6105046020830186610443565b6105116040830185610443565b818103606083015261052381846104a9565b905095945050505050565b600080fd5b600080fd5b7f4e487b7100000000000000000000000000000000000000000000000000000000600052604160045260246000fd5b61057082610498565b810181811067ffffffffffffffff8211171561058f5761058e610538565b5b80604052505050565b60006105a26103cc565b90506105ae8282610567565b919050565b600067ffffffffffffffff8211156105ce576105cd610538565b5b6105d782610498565b9050602081019050919050565b82818337600083830152505050565b6000610606610601846105b3565b610598565b90508281526020810184848401111561062257610621610533565b5b61062d8482856105e4565b509392505050565b600082601f83011261064a5761064961052e565b5b813561065a8482602086016105f3565b91505092915050565b600080600080600060a0868803121561067f5761067e6103d6565b5b600061068d88828901610401565b955050602061069e88828901610401565b94505060406106af88828901610401565b93505060606106c088828901610401565b925050608086013567ffffffffffffffff8111156106e1576106e06103db565b5b6106ed88828901610635565b9150509295509295909350565b600073ffffffffffffffffffffffffffffffffffffffff82169050919050565b6000610725826106fa565b9050919050565b6107358161071a565b82525050565b6000602082019050610750600083018461072c565b92915050565b7f4e487b7100000000000000000000000000000000000000000000000000000000600052602260045260246000fd5b6000600282049050600182168061079d57607f821691505b6020821081036107b0576107af610756565b5b50919050565b7f4f6e6c792061646d696e2063616e20637265617465206f72207570646174652060008201527f6170706f696e746d656e74730000000000000000000000000000000000000000602082015250565b6000610812602c8361045d565b915061081d826107b6565b604082019050919050565b6000602082019050818103600083015261084181610805565b9050919050565b60008190508160005260206000209050919050565b60006020601f8301049050919050565b600082821b905092915050565b6000600883026108aa7fffffffffffffffffffffffffffffffffffffffffffffffffffffffffffffffff8261086d565b6108b4868361086d565b95508019841693508086168417925050509392505050565b6000819050919050565b60006108f16108ec6108e7846103e0565b6108cc565b6103e0565b9050919050565b6000819050919050565b61090b836108d6565b61091f610917826108f8565b84845461087a565b825550505050565b600090565b610934610927565b61093f818484610902565b505050565b5b818110156109635761095860008261092c565b600181019050610945565b5050565b601f8211156109a85761097981610848565b6109828461085d565b81016020851015610991578190505b6109a561099d8561085d565b830182610944565b50505b505050565b600082821c905092915050565b60006109cb600019846008026109ad565b1980831691505092915050565b60006109e483836109ba565b9150826002028217905092915050565b6109fd82610452565b67ffffffffffffffff811115610a1657610a15610538565b5b610a208254610785565b610a2b828285610967565b600060209050601f831160018114610a5e5760008415610a4c578287015190505b610a5685826109d8565b865550610abe565b601f198416610a6c86610848565b60005b82811015610a9457848901518255600182019150602085019450602081019050610a6f565b86831015610ab15784890151610aad601f8916826109ba565b8355505b6001600288020188555050505b50505050505056fea264697066735822122026a546efc0b8255c7cf72567893ab33f525b222a069466fb9369f23955960b0764736f6c63430008130033",
  "immutableReferences": {},
  "source": "// SPDX-License-Identifier: MIT\npragma solidity ^0.8.19;\n\ncontract AppointmentContract {\n    struct Appointment {\n        uint patientId;\n        uint doctorId;\n        uint roomId;\n        string appointmentDate;\n    }\n\n    mapping(uint => Appointment) public appointments;\n    address public admin;\n\n    constructor() {\n        admin = msg.sender;\n    }\n\n    modifier onlyAdmin() {\n        require(msg.sender == admin, \"Only admin can create or update appointments\");\n        _;\n    }\n\n    function createAppointment(uint _appointmentId, uint _patientId, uint _doctorId, uint _roomId, string memory _appointmentDate) public onlyAdmin {\n        appointments[_appointmentId] = Appointment(_patientId, _doctorId, _roomId, _appointmentDate);\n    }\n\n    function getAppointment(uint _appointmentId) public view returns (uint, uint, uint, string memory) {\n        Appointment memory appointment = appointments[_appointmentId];\n        return (appointment.patientId, appointment.doctorId, appointment.roomId, appointment.appointmentDate);\n    }\n}\n",
  "sourcePath": "/Users/hareeshsenthil/Scalable_Healthcare_Model/BC/MySmartContract/contracts/appointment.sol",
  "compiler": {
    "name": "solc",
    "version": "0.8.19+commit.7dd6d404.Emscripten.clang"
  },
  "schemaVersion": "3.4.16",
  "updatedAt": "2024-09-27T05:25:41.708Z",
  "networkType": "ethereum",
  "devdoc": {
    "kind": "dev",
    "methods": {},
    "version": 1
  },
  "userdoc": {
    "kind": "user",
    "methods": {},
    "version": 1
  }
}