{
  "contractName": "Consortium",
  "abi": [
    {
      "inputs": [
        {
          "internalType": "address",
          "name": "_doctorContract",
          "type": "address"
        },
        {
          "internalType": "address",
          "name": "_patientContract",
          "type": "address"
        },
        {
          "internalType": "address",
          "name": "_appointmentContract",
          "type": "address"
        }
      ],
      "stateMutability": "nonpayable",
      "type": "constructor"
    },
    {
      "inputs": [],
      "name": "admin",
      "outputs": [
        {
          "internalType": "address",
          "name": "",
          "type": "address"
        }
      ],
      "stateMutability": "view",
      "type": "function"
    },
    {
      "inputs": [],
      "name": "appointmentContract",
      "outputs": [
        {
          "internalType": "address",
          "name": "",
          "type": "address"
        }
      ],
      "stateMutability": "view",
      "type": "function"
    },
    {
      "inputs": [],
      "name": "doctorContract",
      "outputs": [
        {
          "internalType": "address",
          "name": "",
          "type": "address"
        }
      ],
      "stateMutability": "view",
      "type": "function"
    },
    {
      "inputs": [],
      "name": "patientContract",
      "outputs": [
        {
          "internalType": "address",
          "name": "",
          "type": "address"
        }
      ],
      "stateMutability": "view",
      "type": "function"
    },
    {
      "inputs": [
        {
          "internalType": "address",
          "name": "_doctorContract",
          "type": "address"
        }
      ],
      "name": "setDoctorContract",
      "outputs": [],
      "stateMutability": "nonpayable",
      "type": "function"
    },
    {
      "inputs": [
        {
          "internalType": "address",
          "name": "_patientContract",
          "type": "address"
        }
      ],
      "name": "setPatientContract",
      "outputs": [],
      "stateMutability": "nonpayable",
      "type": "function"
    },
    {
      "inputs": [
        {
          "internalType": "address",
          "name": "_appointmentContract",
          "type": "address"
        }
      ],
      "name": "setAppointmentContract",
      "outputs": [],
      "stateMutability": "nonpayable",
      "type": "function"
    }
  ],
  "bytecode": "0x608060405234801561001057600080fd5b506040516107f43803806107f4833981810160405281019061003291906101a0565b826000806101000a81548173ffffffffffffffffffffffffffffffffffffffff021916908373ffffffffffffffffffffffffffffffffffffffff16021790555081600160006101000a81548173ffffffffffffffffffffffffffffffffffffffff021916908373ffffffffffffffffffffffffffffffffffffffff16021790555080600260006101000a81548173ffffffffffffffffffffffffffffffffffffffff021916908373ffffffffffffffffffffffffffffffffffffffff16021790555033600360006101000a81548173ffffffffffffffffffffffffffffffffffffffff021916908373ffffffffffffffffffffffffffffffffffffffff1602179055505050506101f3565b600080fd5b600073ffffffffffffffffffffffffffffffffffffffff82169050919050565b600061016d82610142565b9050919050565b61017d81610162565b811461018857600080fd5b50565b60008151905061019a81610174565b92915050565b6000806000606084860312156101b9576101b861013d565b5b60006101c78682870161018b565b93505060206101d88682870161018b565b92505060406101e98682870161018b565b9150509250925092565b6105f2806102026000396000f3fe608060405234801561001057600080fd5b506004361061007d5760003560e01c8063e22305961161005b578063e2230596146100d8578063f23876e9146100f4578063f6e8e18f14610112578063f851a440146101305761007d565b8063094c7e63146100825780632a9c18b11461009e578063dc279f00146100bc575b600080fd5b61009c600480360381019061009791906104c2565b61014e565b005b6100a6610222565b6040516100b391906104fe565b60405180910390f35b6100d660048036038101906100d191906104c2565b610248565b005b6100f260048036038101906100ed91906104c2565b61031c565b005b6100fc6103ef565b60405161010991906104fe565b60405180910390f35b61011a610413565b60405161012791906104fe565b60405180910390f35b610138610439565b60405161014591906104fe565b60405180910390f35b600360009054906101000a900473ffffffffffffffffffffffffffffffffffffffff1673ffffffffffffffffffffffffffffffffffffffff163373ffffffffffffffffffffffffffffffffffffffff16146101de576040517f08c379a00000000000000000000000000000000000000000000000000000000081526004016101d59061059c565b60405180910390fd5b80600260006101000a81548173ffffffffffffffffffffffffffffffffffffffff021916908373ffffffffffffffffffffffffffffffffffffffff16021790555050565b600260009054906101000a900473ffffffffffffffffffffffffffffffffffffffff1681565b600360009054906101000a900473ffffffffffffffffffffffffffffffffffffffff1673ffffffffffffffffffffffffffffffffffffffff163373ffffffffffffffffffffffffffffffffffffffff16146102d8576040517f08c379a00000000000000000000000000000000000000000000000000000000081526004016102cf9061059c565b60405180910390fd5b80600160006101000a81548173ffffffffffffffffffffffffffffffffffffffff021916908373ffffffffffffffffffffffffffffffffffffffff16021790555050565b600360009054906101000a900473ffffffffffffffffffffffffffffffffffffffff1673ffffffffffffffffffffffffffffffffffffffff163373ffffffffffffffffffffffffffffffffffffffff16146103ac576040517f08c379a00000000000000000000000000000000000000000000000000000000081526004016103a39061059c565b60405180910390fd5b806000806101000a81548173ffffffffffffffffffffffffffffffffffffffff021916908373ffffffffffffffffffffffffffffffffffffffff16021790555050565b60008054906101000a900473ffffffffffffffffffffffffffffffffffffffff1681565b600160009054906101000a900473ffffffffffffffffffffffffffffffffffffffff1681565b600360009054906101000a900473ffffffffffffffffffffffffffffffffffffffff1681565b600080fd5b600073ffffffffffffffffffffffffffffffffffffffff82169050919050565b600061048f82610464565b9050919050565b61049f81610484565b81146104aa57600080fd5b50565b6000813590506104bc81610496565b92915050565b6000602082840312156104d8576104d761045f565b5b60006104e6848285016104ad565b91505092915050565b6104f881610484565b82525050565b600060208201905061051360008301846104ef565b92915050565b600082825260208201905092915050565b7f4f6e6c792061646d696e2063616e2061636365737320746869732066756e637460008201527f696f6e0000000000000000000000000000000000000000000000000000000000602082015250565b6000610586602383610519565b91506105918261052a565b604082019050919050565b600060208201905081810360008301526105b581610579565b905091905056fea2646970667358221220214a8541eab6c3cb0e47a7685560fef3d164782c56741c53128a1812afa503cc64736f6c63430008130033",
  "immutableReferences": {},
  "source": "// SPDX-License-Identifier: MIT\r\npragma solidity ^0.8.19;\r\n\r\n/// @title Consortium\r\n/// @dev Main consortium contract for linking all modules including doctors, patients, and appointments\r\ncontract Consortium {\r\n    address public doctorContract;      // Address of the Doctor contract\r\n    address public patientContract;     // Address of the Patient contract\r\n    address public appointmentContract; // Address of the Appointment contract\r\n    address public admin;               // Address of the contract admin\r\n\r\n    /// @dev Constructor that sets the contract addresses and admin\r\n    constructor(address _doctorContract, address _patientContract, address _appointmentContract) {\r\n        doctorContract = _doctorContract;          // Set the doctor contract address\r\n        patientContract = _patientContract;        // Set the patient contract address\r\n        appointmentContract = _appointmentContract; // Set the appointment contract address\r\n        admin = msg.sender;                        // Set the deploying address as admin\r\n    }\r\n\r\n    /// @dev Modifier to restrict access to admin-only functions\r\n    modifier onlyAdmin() {\r\n        require(msg.sender == admin, \"Only admin can access this function\");\r\n        _; // Placeholder for the modified function code\r\n    }\r\n\r\n    /// @notice Set the address of the Doctor contract\r\n    /// @dev This function can only be called by the admin\r\n    /// @param _doctorContract New address for the Doctor contract\r\n    function setDoctorContract(address _doctorContract) public onlyAdmin {\r\n        doctorContract = _doctorContract; // Update the doctor contract address\r\n    }\r\n\r\n    /// @notice Set the address of the Patient contract\r\n    /// @dev This function can only be called by the admin\r\n    /// @param _patientContract New address for the Patient contract\r\n    function setPatientContract(address _patientContract) public onlyAdmin {\r\n        patientContract = _patientContract; // Update the patient contract address\r\n    }\r\n\r\n    /// @notice Set the address of the Appointment contract\r\n    /// @dev This function can only be called by the admin\r\n    /// @param _appointmentContract New address for the Appointment contract\r\n    function setAppointmentContract(address _appointmentContract) public onlyAdmin {\r\n        appointmentContract = _appointmentContract; // Update the appointment contract address\r\n    }\r\n    \r\n    // Add additional linking mechanisms if needed\r\n}",
  "sourcePath": "C:\\Users\\PSG\\Desktop\\Temp\\Scalable_Healthcare_Model_Blockchain\\contracts\\base.sol",
  "compiler": {
    "name": "solc",
    "version": "0.8.19+commit.7dd6d404.Emscripten.clang"
  },
  "schemaVersion": "3.4.16",
  "updatedAt": "2024-10-03T09:51:51.973Z",
  "devdoc": {
    "details": "Main consortium contract for linking all modules including doctors, patients, and appointments",
    "kind": "dev",
    "methods": {
      "constructor": {
        "details": "Constructor that sets the contract addresses and admin"
      },
      "setAppointmentContract(address)": {
        "details": "This function can only be called by the admin",
        "params": {
          "_appointmentContract": "New address for the Appointment contract"
        }
      },
      "setDoctorContract(address)": {
        "details": "This function can only be called by the admin",
        "params": {
          "_doctorContract": "New address for the Doctor contract"
        }
      },
      "setPatientContract(address)": {
        "details": "This function can only be called by the admin",
        "params": {
          "_patientContract": "New address for the Patient contract"
        }
      }
    },
    "title": "Consortium",
    "version": 1
  },
  "userdoc": {
    "kind": "user",
    "methods": {
      "setAppointmentContract(address)": {
        "notice": "Set the address of the Appointment contract"
      },
      "setDoctorContract(address)": {
        "notice": "Set the address of the Doctor contract"
      },
      "setPatientContract(address)": {
        "notice": "Set the address of the Patient contract"
      }
    },
    "version": 1
  }
}