{
  "contractName": "DoctorContract",
  "abi": [
    {
      "inputs": [],
      "stateMutability": "nonpayable",
      "type": "constructor"
    },
    {
      "inputs": [],
      "name": "admin",
      "outputs": [
        {
          "internalType": "address",
          "name": "",
          "type": "address"
        }
      ],
      "stateMutability": "view",
      "type": "function",
      "constant": true
    },
    {
      "inputs": [
        {
          "internalType": "uint256",
          "name": "_id",
          "type": "uint256"
        },
        {
          "internalType": "string",
          "name": "_name",
          "type": "string"
        },
        {
          "internalType": "uint256",
          "name": "_age",
          "type": "uint256"
        },
        {
          "internalType": "string",
          "name": "_department",
          "type": "string"
        }
      ],
      "name": "addDoctor",
      "outputs": [],
      "stateMutability": "nonpayable",
      "type": "function"
    },
    {
      "inputs": [
        {
          "internalType": "uint256",
          "name": "_id",
          "type": "uint256"
        }
      ],
      "name": "getDoctor",
      "outputs": [
        {
          "internalType": "string",
          "name": "",
          "type": "string"
        },
        {
          "internalType": "string",
          "name": "",
          "type": "string"
        },
        {
          "internalType": "uint256",
          "name": "",
          "type": "uint256"
        }
      ],
      "stateMutability": "view",
      "type": "function",
      "constant": true
    },
    {
      "inputs": [
        {
          "internalType": "uint256",
          "name": "_id",
          "type": "uint256"
        },
        {
          "internalType": "string",
          "name": "_name",
          "type": "string"
        },
        {
          "internalType": "uint256",
          "name": "_age",
          "type": "uint256"
        },
        {
          "internalType": "string",
          "name": "_department",
          "type": "string"
        }
      ],
      "name": "updateDoctor",
      "outputs": [],
      "stateMutability": "nonpayable",
      "type": "function"
    }
  ],
  "bytecode": "0x608060405234801561001057600080fd5b5033600160006101000a81548173ffffffffffffffffffffffffffffffffffffffff021916908373ffffffffffffffffffffffffffffffffffffffff160217905550610b98806100616000396000f3fe608060405234801561001057600080fd5b506004361061004c5760003560e01c806324cd98d01461005157806369b0a72d1461006d578063b22501871461009f578063f851a440146100bb575b600080fd5b61006b600480360381019061006691906105f7565b6100d9565b005b61008760048036038101906100829190610696565b6101d5565b60405161009693929190610751565b60405180910390f35b6100b960048036038101906100b491906105f7565b610345565b005b6100c3610441565b6040516100d091906107d7565b60405180910390f35b600160009054906101000a900473ffffffffffffffffffffffffffffffffffffffff1673ffffffffffffffffffffffffffffffffffffffff163373ffffffffffffffffffffffffffffffffffffffff1614610169576040517f08c379a000000000000000000000000000000000000000000000000000000000815260040161016090610864565b60405180910390fd5b60405180606001604052808481526020018281526020018381525060008086815260200190815260200160002060008201518160000190816101ab9190610a90565b5060208201518160010190816101c19190610a90565b506040820151816002015590505050505050565b606080600080600080868152602001908152602001600020604051806060016040529081600082018054610208906108b3565b80601f0160208091040260200160405190810160405280929190818152602001828054610234906108b3565b80156102815780601f1061025657610100808354040283529160200191610281565b820191906000526020600020905b81548152906001019060200180831161026457829003601f168201915b5050505050815260200160018201805461029a906108b3565b80601f01602080910402602001604051908101604052809291908181526020018280546102c6906108b3565b80156103135780601f106102e857610100808354040283529160200191610313565b820191906000526020600020905b8154815290600101906020018083116102f657829003601f168201915b505050505081526020016002820154815250509050806000015181602001518260400151935093509350509193909250565b600160009054906101000a900473ffffffffffffffffffffffffffffffffffffffff1673ffffffffffffffffffffffffffffffffffffffff163373ffffffffffffffffffffffffffffffffffffffff16146103d5576040517f08c379a00000000000000000000000000000000000000000000000000000000081526004016103cc90610864565b60405180910390fd5b60405180606001604052808481526020018281526020018381525060008086815260200190815260200160002060008201518160000190816104179190610a90565b50602082015181600101908161042d9190610a90565b506040820151816002015590505050505050565b600160009054906101000a900473ffffffffffffffffffffffffffffffffffffffff1681565b6000604051905090565b600080fd5b600080fd5b6000819050919050565b61048e8161047b565b811461049957600080fd5b50565b6000813590506104ab81610485565b92915050565b600080fd5b600080fd5b6000601f19601f8301169050919050565b7f4e487b7100000000000000000000000000000000000000000000000000000000600052604160045260246000fd5b610504826104bb565b810181811067ffffffffffffffff82111715610523576105226104cc565b5b80604052505050565b6000610536610467565b905061054282826104fb565b919050565b600067ffffffffffffffff821115610562576105616104cc565b5b61056b826104bb565b9050602081019050919050565b82818337600083830152505050565b600061059a61059584610547565b61052c565b9050828152602081018484840111156105b6576105b56104b6565b5b6105c1848285610578565b509392505050565b600082601f8301126105de576105dd6104b1565b5b81356105ee848260208601610587565b91505092915050565b6000806000806080858703121561061157610610610471565b5b600061061f8782880161049c565b945050602085013567ffffffffffffffff8111156106405761063f610476565b5b61064c878288016105c9565b935050604061065d8782880161049c565b925050606085013567ffffffffffffffff81111561067e5761067d610476565b5b61068a878288016105c9565b91505092959194509250565b6000602082840312156106ac576106ab610471565b5b60006106ba8482850161049c565b91505092915050565b600081519050919050565b600082825260208201905092915050565b60005b838110156106fd5780820151818401526020810190506106e2565b60008484015250505050565b6000610714826106c3565b61071e81856106ce565b935061072e8185602086016106df565b610737816104bb565b840191505092915050565b61074b8161047b565b82525050565b6000606082019050818103600083015261076b8186610709565b9050818103602083015261077f8185610709565b905061078e6040830184610742565b949350505050565b600073ffffffffffffffffffffffffffffffffffffffff82169050919050565b60006107c182610796565b9050919050565b6107d1816107b6565b82525050565b60006020820190506107ec60008301846107c8565b92915050565b7f4f6e6c792061646d696e2063616e20616464206f722075706461746520646f6360008201527f746f727300000000000000000000000000000000000000000000000000000000602082015250565b600061084e6024836106ce565b9150610859826107f2565b604082019050919050565b6000602082019050818103600083015261087d81610841565b9050919050565b7f4e487b7100000000000000000000000000000000000000000000000000000000600052602260045260246000fd5b600060028204905060018216806108cb57607f821691505b6020821081036108de576108dd610884565b5b50919050565b60008190508160005260206000209050919050565b60006020601f8301049050919050565b600082821b905092915050565b6000600883026109467fffffffffffffffffffffffffffffffffffffffffffffffffffffffffffffffff82610909565b6109508683610909565b95508019841693508086168417925050509392505050565b6000819050919050565b600061098d6109886109838461047b565b610968565b61047b565b9050919050565b6000819050919050565b6109a783610972565b6109bb6109b382610994565b848454610916565b825550505050565b600090565b6109d06109c3565b6109db81848461099e565b505050565b5b818110156109ff576109f46000826109c8565b6001810190506109e1565b5050565b601f821115610a4457610a15816108e4565b610a1e846108f9565b81016020851015610a2d578190505b610a41610a39856108f9565b8301826109e0565b50505b505050565b600082821c905092915050565b6000610a6760001984600802610a49565b1980831691505092915050565b6000610a808383610a56565b9150826002028217905092915050565b610a99826106c3565b67ffffffffffffffff811115610ab257610ab16104cc565b5b610abc82546108b3565b610ac7828285610a03565b600060209050601f831160018114610afa5760008415610ae8578287015190505b610af28582610a74565b865550610b5a565b601f198416610b08866108e4565b60005b82811015610b3057848901518255600182019150602085019450602081019050610b0b565b86831015610b4d5784890151610b49601f891682610a56565b8355505b6001600288020188555050505b50505050505056fea26469706673582212207e2f14b41a9519b8c7f587ea3eb04cad5690cc7c9e3fa11028f4912879d81a0c64736f6c63430008130033",
  "immutableReferences": {},
  "source": "// SPDX-License-Identifier: MIT\npragma solidity ^0.8.19;\n\ncontract DoctorContract {\n    struct Doctor {\n        string name;\n        string department;\n        uint age;\n    }\n\n    mapping(uint => Doctor) private doctors;\n    address public admin;\n\n    constructor() {\n        admin = msg.sender;\n    }\n\n    modifier onlyAdmin() {\n        require(msg.sender == admin, \"Only admin can add or update doctors\");\n        _;\n    }\n\n    function addDoctor(uint _id, string memory _name, uint _age, string memory _department) public onlyAdmin {\n        doctors[_id] = Doctor(_name, _department, _age);\n    }\n\n    function getDoctor(uint _id) public view returns (string memory, string memory, uint) {\n        Doctor memory doctor = doctors[_id];\n        return (doctor.name, doctor.department, doctor.age);\n    }\n\n    function updateDoctor(uint _id, string memory _name, uint _age, string memory _department) public onlyAdmin {\n        doctors[_id] = Doctor(_name, _department, _age);\n    }\n}\n",
  "sourcePath": "/Users/hareeshsenthil/Scalable_Healthcare_Model/BC/MySmartContract/contracts/doctor.sol",
  "compiler": {
    "name": "solc",
    "version": "0.8.19+commit.7dd6d404.Emscripten.clang"
  },
  "schemaVersion": "3.4.16",
  "updatedAt": "2024-09-27T05:25:41.701Z",
  "networkType": "ethereum",
  "devdoc": {
    "kind": "dev",
    "methods": {},
    "version": 1
  },
  "userdoc": {
    "kind": "user",
    "methods": {},
    "version": 1
  }
}