{
  "contractName": "PatientContract",
  "abi": [
    {
      "inputs": [],
      "stateMutability": "nonpayable",
      "type": "constructor"
    },
    {
      "inputs": [],
      "name": "admin",
      "outputs": [
        {
          "internalType": "address",
          "name": "",
          "type": "address"
        }
      ],
      "stateMutability": "view",
      "type": "function",
      "constant": true
    },
    {
      "inputs": [
        {
          "internalType": "uint256",
          "name": "_id",
          "type": "uint256"
        },
        {
          "internalType": "string",
          "name": "_name",
          "type": "string"
        },
        {
          "internalType": "uint256",
          "name": "_age",
          "type": "uint256"
        },
        {
          "internalType": "string",
          "name": "_medicalHistory",
          "type": "string"
        }
      ],
      "name": "addPatient",
      "outputs": [],
      "stateMutability": "nonpayable",
      "type": "function"
    },
    {
      "inputs": [
        {
          "internalType": "uint256",
          "name": "_id",
          "type": "uint256"
        }
      ],
      "name": "getPatient",
      "outputs": [
        {
          "internalType": "string",
          "name": "",
          "type": "string"
        },
        {
          "internalType": "uint256",
          "name": "",
          "type": "uint256"
        },
        {
          "internalType": "string",
          "name": "",
          "type": "string"
        }
      ],
      "stateMutability": "view",
      "type": "function",
      "constant": true
    },
    {
      "inputs": [
        {
          "internalType": "uint256",
          "name": "_id",
          "type": "uint256"
        },
        {
          "internalType": "string",
          "name": "_name",
          "type": "string"
        },
        {
          "internalType": "uint256",
          "name": "_age",
          "type": "uint256"
        },
        {
          "internalType": "string",
          "name": "_medicalHistory",
          "type": "string"
        }
      ],
      "name": "updatePatient",
      "outputs": [],
      "stateMutability": "nonpayable",
      "type": "function"
    }
  ],
  "bytecode": "0x608060405234801561001057600080fd5b5033600160006101000a81548173ffffffffffffffffffffffffffffffffffffffff021916908373ffffffffffffffffffffffffffffffffffffffff160217905550610b9a806100616000396000f3fe608060405234801561001057600080fd5b506004361061004c5760003560e01c80634e06569f14610051578063557402501461006d5780637d3a679614610089578063f851a440146100bb575b600080fd5b61006b600480360381019061006691906105f9565b6100d9565b005b610087600480360381019061008291906105f9565b6101d5565b005b6100a3600480360381019061009e9190610698565b6102d1565b6040516100b293929190610753565b60405180910390f35b6100c3610443565b6040516100d091906107d9565b60405180910390f35b600160009054906101000a900473ffffffffffffffffffffffffffffffffffffffff1673ffffffffffffffffffffffffffffffffffffffff163373ffffffffffffffffffffffffffffffffffffffff1614610169576040517f08c379a000000000000000000000000000000000000000000000000000000000815260040161016090610866565b60405180910390fd5b60405180606001604052808481526020018381526020018281525060008086815260200190815260200160002060008201518160000190816101ab9190610a92565b506020820151816001015560408201518160020190816101cb9190610a92565b5090505050505050565b600160009054906101000a900473ffffffffffffffffffffffffffffffffffffffff1673ffffffffffffffffffffffffffffffffffffffff163373ffffffffffffffffffffffffffffffffffffffff1614610265576040517f08c379a000000000000000000000000000000000000000000000000000000000815260040161025c90610866565b60405180910390fd5b60405180606001604052808481526020018381526020018281525060008086815260200190815260200160002060008201518160000190816102a79190610a92565b506020820151816001015560408201518160020190816102c79190610a92565b5090505050505050565b6060600060606000806000868152602001908152602001600020604051806060016040529081600082018054610306906108b5565b80601f0160208091040260200160405190810160405280929190818152602001828054610332906108b5565b801561037f5780601f106103545761010080835404028352916020019161037f565b820191906000526020600020905b81548152906001019060200180831161036257829003601f168201915b50505050508152602001600182015481526020016002820180546103a2906108b5565b80601f01602080910402602001604051908101604052809291908181526020018280546103ce906108b5565b801561041b5780601f106103f05761010080835404028352916020019161041b565b820191906000526020600020905b8154815290600101906020018083116103fe57829003601f168201915b5050505050815250509050806000015181602001518260400151935093509350509193909250565b600160009054906101000a900473ffffffffffffffffffffffffffffffffffffffff1681565b6000604051905090565b600080fd5b600080fd5b6000819050919050565b6104908161047d565b811461049b57600080fd5b50565b6000813590506104ad81610487565b92915050565b600080fd5b600080fd5b6000601f19601f8301169050919050565b7f4e487b7100000000000000000000000000000000000000000000000000000000600052604160045260246000fd5b610506826104bd565b810181811067ffffffffffffffff82111715610525576105246104ce565b5b80604052505050565b6000610538610469565b905061054482826104fd565b919050565b600067ffffffffffffffff821115610564576105636104ce565b5b61056d826104bd565b9050602081019050919050565b82818337600083830152505050565b600061059c61059784610549565b61052e565b9050828152602081018484840111156105b8576105b76104b8565b5b6105c384828561057a565b509392505050565b600082601f8301126105e0576105df6104b3565b5b81356105f0848260208601610589565b91505092915050565b6000806000806080858703121561061357610612610473565b5b60006106218782880161049e565b945050602085013567ffffffffffffffff81111561064257610641610478565b5b61064e878288016105cb565b935050604061065f8782880161049e565b925050606085013567ffffffffffffffff8111156106805761067f610478565b5b61068c878288016105cb565b91505092959194509250565b6000602082840312156106ae576106ad610473565b5b60006106bc8482850161049e565b91505092915050565b600081519050919050565b600082825260208201905092915050565b60005b838110156106ff5780820151818401526020810190506106e4565b60008484015250505050565b6000610716826106c5565b61072081856106d0565b93506107308185602086016106e1565b610739816104bd565b840191505092915050565b61074d8161047d565b82525050565b6000606082019050818103600083015261076d818661070b565b905061077c6020830185610744565b818103604083015261078e818461070b565b9050949350505050565b600073ffffffffffffffffffffffffffffffffffffffff82169050919050565b60006107c382610798565b9050919050565b6107d3816107b8565b82525050565b60006020820190506107ee60008301846107ca565b92915050565b7f4f6e6c792061646d696e2063616e20616464206f72207570646174652070617460008201527f69656e7473000000000000000000000000000000000000000000000000000000602082015250565b60006108506025836106d0565b915061085b826107f4565b604082019050919050565b6000602082019050818103600083015261087f81610843565b9050919050565b7f4e487b7100000000000000000000000000000000000000000000000000000000600052602260045260246000fd5b600060028204905060018216806108cd57607f821691505b6020821081036108e0576108df610886565b5b50919050565b60008190508160005260206000209050919050565b60006020601f8301049050919050565b600082821b905092915050565b6000600883026109487fffffffffffffffffffffffffffffffffffffffffffffffffffffffffffffffff8261090b565b610952868361090b565b95508019841693508086168417925050509392505050565b6000819050919050565b600061098f61098a6109858461047d565b61096a565b61047d565b9050919050565b6000819050919050565b6109a983610974565b6109bd6109b582610996565b848454610918565b825550505050565b600090565b6109d26109c5565b6109dd8184846109a0565b505050565b5b81811015610a01576109f66000826109ca565b6001810190506109e3565b5050565b601f821115610a4657610a17816108e6565b610a20846108fb565b81016020851015610a2f578190505b610a43610a3b856108fb565b8301826109e2565b50505b505050565b600082821c905092915050565b6000610a6960001984600802610a4b565b1980831691505092915050565b6000610a828383610a58565b9150826002028217905092915050565b610a9b826106c5565b67ffffffffffffffff811115610ab457610ab36104ce565b5b610abe82546108b5565b610ac9828285610a05565b600060209050601f831160018114610afc5760008415610aea578287015190505b610af48582610a76565b865550610b5c565b601f198416610b0a866108e6565b60005b82811015610b3257848901518255600182019150602085019450602081019050610b0d565b86831015610b4f5784890151610b4b601f891682610a58565b8355505b6001600288020188555050505b50505050505056fea2646970667358221220629c10cf4d967fa38abe78364adbe868f28cc41621678e35216c097c22a0ad3564736f6c63430008130033",
  "immutableReferences": {},
  "source": "// SPDX-License-Identifier: MIT\r\npragma solidity ^0.8.19;\r\n\r\n/// @title PatientContract\r\n/// @dev A smart contract for managing patient information\r\ncontract PatientContract {\r\n    // Struct representing a Patient\r\n    struct Patient {\r\n        string name;             // Name of the patient\r\n        uint age;                // Age of the patient\r\n        string medicalHistory;   // Medical history of the patient\r\n    }\r\n\r\n    // Mapping to store patients by their unique ID\r\n    mapping(uint => Patient) private patients;\r\n\r\n    // Address of the contract admin\r\n    address public admin;\r\n\r\n    /// @dev Constructor that sets the admin to the account that deploys the contract\r\n    constructor() {\r\n        admin = msg.sender; // Set the deploying address as admin\r\n    }\r\n\r\n    /// @dev Modifier to restrict access to admin-only functions\r\n    modifier onlyAdmin() {\r\n        require(msg.sender == admin, \"Only admin can add or update patients\");\r\n        _; // Placeholder for the modified function code\r\n    }\r\n\r\n    /// @notice Add a new patient\r\n    /// @dev This function can only be called by the admin\r\n    /// @param _id Unique ID for the patient\r\n    /// @param _name Name of the patient\r\n    /// @param _age Age of the patient\r\n    /// @param _medicalHistory Medical history of the patient\r\n    function addPatient(uint _id, string memory _name, uint _age, string memory _medicalHistory) public onlyAdmin {\r\n        // Create and store the patient in the mapping\r\n        patients[_id] = Patient(_name, _age, _medicalHistory);\r\n    }\r\n\r\n    /// @notice Get details of a specific patient\r\n    /// @dev Public function to retrieve patient information\r\n    /// @param _id Unique ID of the patient\r\n    /// @return name Name of the patient\r\n    /// @return age Age of the patient\r\n    /// @return medicalHistory Medical history of the patient\r\n    function getPatient(uint _id) public view returns (string memory, uint, string memory) {\r\n        // Retrieve the patient from the mapping\r\n        Patient memory patient = patients[_id];\r\n        return (patient.name, patient.age, patient.medicalHistory);\r\n    }\r\n\r\n    /// @notice Update information for an existing patient\r\n    /// @dev This function can only be called by the admin\r\n    /// @param _id Unique ID of the patient\r\n    /// @param _name New name of the patient\r\n    /// @param _age New age of the patient\r\n    /// @param _medicalHistory New medical history of the patient\r\n    function updatePatient(uint _id, string memory _name, uint _age, string memory _medicalHistory) public onlyAdmin {\r\n        // Update the patient's information in the mapping\r\n        patients[_id] = Patient(_name, _age, _medicalHistory);\r\n    }\r\n}",
  "sourcePath": "C:\\Users\\PSG\\Desktop\\Temp\\Scalable_Healthcare_Model_Blockchain\\contracts\\patient.sol",
  "compiler": {
    "name": "solc",
    "version": "0.8.19+commit.7dd6d404.Emscripten.clang"
  },
  "schemaVersion": "3.4.16",
  "updatedAt": "2024-10-03T09:51:53.760Z",
  "networkType": "ethereum",
  "devdoc": {
    "details": "A smart contract for managing patient information",
    "kind": "dev",
    "methods": {
      "addPatient(uint256,string,uint256,string)": {
        "details": "This function can only be called by the admin",
        "params": {
          "_age": "Age of the patient",
          "_id": "Unique ID for the patient",
          "_medicalHistory": "Medical history of the patient",
          "_name": "Name of the patient"
        }
      },
      "constructor": {
        "details": "Constructor that sets the admin to the account that deploys the contract"
      },
      "getPatient(uint256)": {
        "details": "Public function to retrieve patient information",
        "params": {
          "_id": "Unique ID of the patient"
        },
        "returns": {
          "_0": "name Name of the patient",
          "_1": "age Age of the patient",
          "_2": "medicalHistory Medical history of the patient"
        }
      },
      "updatePatient(uint256,string,uint256,string)": {
        "details": "This function can only be called by the admin",
        "params": {
          "_age": "New age of the patient",
          "_id": "Unique ID of the patient",
          "_medicalHistory": "New medical history of the patient",
          "_name": "New name of the patient"
        }
      }
    },
    "title": "PatientContract",
    "version": 1
  },
  "userdoc": {
    "kind": "user",
    "methods": {
      "addPatient(uint256,string,uint256,string)": {
        "notice": "Add a new patient"
      },
      "getPatient(uint256)": {
        "notice": "Get details of a specific patient"
      },
      "updatePatient(uint256,string,uint256,string)": {
        "notice": "Update information for an existing patient"
      }
    },
    "version": 1
  }
}